:020000040000FA
:060000001BEF0BF01200E3
:020006000000F8
:0600080004EF08F01200F5
:060018000CEF08F01200DD
:02001E000100DF
:0C00200006000000FE00000002000000CE
:04002C0059EC06F095
:10003000A09A6A6A686A706AA4EC05F0F1EC05F0AF
:10004000DF6ADAEC05F003E28AEC05F0FAD76D8C92
:100050006E6A6D986D9C68A607D068960501A66BC0
:10006000AB6BAC6BAD6BF7D70501010EBF6FC06F0B
:10007000C16BC26BB36BDF6A030EDF5C11E2EA6A2D
:10008000DF345CEC06F0EA22EE6AED6AEA6ADF34FD
:1000900063EC06F0EA22EE6AED6A9AEC05F0ECD722
:1000A0000501080E9C6F040E9D6F160E706E040104
:1000B000300E026F040E036F080E016F840E006F86
:1000C0000501906B8F6BE55264EF05F059EC06F07B
:1000D00005018F0507E16DBA05D0686A69806988F6
:1000E000020E8F6F6850040B05E06950040B02E0AC
:1000F000689498D86DB245D06850010B09E06950FA
:10010000010B06E093DFA08A0501040E8F6F689053
:100110006850100B05E06950100B02E078D8689821
:1001200068AC0FD069AC05D0F8EC05F0730E51EC5B
:1001300005F0689C0501BD5101E0BD07BD5101E11D
:1001400020DA6850200B04E06950200B01E04CD805
:100150006850020B0BE06950020B08E0F8EC05F068
:10016000E6687F0EE66E6AEC06F06A6A040E050128
:10017000E76E8F19E8AE02D0E73402D0E7508F5D0A
:1001800002E2A19A2ED069A62BD0DF6A040EDF5CB2
:1001900027E268A625D06CCFB4F50501B451780BE1
:1001A000E842E842E842B56F6896B4B504D0B5516C
:1001B00071EC06F003D0B55176EC06F0EA22EF7050
:1001C000B55102E13DD80AD0000EE66EE66AB40EE3
:1001D000E66E050EE66E720E51EC05F0DF2AD6D7FC
:1001E000A19AE55264EF05F070A00FD070EC05F015
:1001F000EF50800809E15AEC05F0EF50840804E163
:1002000070EC05F08C0EEF6E7090689A12006984A5
:1002100068986D820501010EB36FC0EC05F0750E94
:1002200051EF05F00501B36BC0EC05F0740E51EC15
:1002300005F06D92699468A402D06894FCD712000E
:1002400059EC06F005012D0EBD6FFD0EB41540E111
:100250007E0EB415E8407F0B040DF3CF92F5F4CF7A
:1002600093F5000E9227040E932392C594F593C53F
:1002700095F5947570EC05F0EF503C0BE842E842C0
:100280000D0824E1DF6A080EDF5C1AE270EC05F06D
:10029000020EE926000EADEC05F0EF50E66EDF50E1
:1002A000EA6A300FE96E040EEA22E552E750EF6E7B
:1002B00070EC05F085EC06F0EE2AEF22DF2AE3D79A
:1002C00070EC05F025EC06F00BD807D026D805D049
:1002D000FD0EB415040801E12FD8E55264EF05F0D6
:1002E0000501A26BBE6BC16BC26BB66BA36BE2DB8D
:1002F000EF9E9C75DFDBEF9E9C7514EC06F0EF9E85
:10030000A66BA76BA86BAB6BAC6BAD6B50D8C0EC9E
:1003100005F0030EC6DB7BEF03F0020E0501A35DC3
:1003200002E1E7EF03F0A36BB65104E1B1DB8C0E01
:10033000EF6E1200B66B120059EC06F0BBDBEF500B
:10034000400B01E0010EDF6E05019C75080E8F5D0C
:1003500008E132C46EFF6E5002E0100E01D0040EB0
:100360008F6FA30513E1A6DBC0DBF2D9020E0501F6
:10037000A25D03E19FDB840E07D0DF5003E19ADB2F
:10038000C80E02D097DB880EEF6E0FD0ABAF0CD04B
:10039000AE51AF1107E005D0AFC5FAFF0501AE5170
:1003A000F96EFADF0501AB9FA36BE5528DD3040113
:1003B0003051600BE842E842E842E842E842000976
:1003C00001E0120031510C0A45E00B0A3FE00C0A33
:1003D00031E0010A22E00B0A1EE0020A1CE0030AD7
:1003E00018E0080A10E0010A0CE00F0A08E0030A0E
:1003F00001E012000501A68F080E8F6F120003EFB7
:1004000003F04BEF04F00501900EA46F050EA56FED
:100410000CD040EF03F02BEF02F034510501A46F34
:10042000A56B910EA427050EA523A681010EA76F2B
:10043000A68F12000501A68F04013451EA6A910FBC
:10044000E96E050EEA2232C4EFFF120099DB020EBC
:1004500051EF05F0120033DB050EE12604013205F1
:1004600010E130511F0B00090CE10501A68F030EAE
:100470000401315D04E10501010EB26F02D00501F6
:10048000B26B0401325101E075D030511F0B0208EC
:1004900071E134510F0B00096DE034510F0B02086C
:1004A00069E3200E05018F5D65E1A68F040134BF6D
:1004B00004D0E6DB6BDB70DB03D0E7DB67DB70DBF4
:1004C000EA22020EEFCFDBFF9ADB010B03E1000E05
:1004D000DF9401D0DF8434BF02D0D2DB01D0D5DB82
:1004E000EA22DECFEEFFDDCFEDFF030E315D0DE141
:1004F000D1DB07E034BF02D04FDB01D051DBEA2271
:10050000EF82840E8AEC06F035D0DF74C3DB06E0A0
:10051000CCDAEF9ECADAEF8CA2DB02D0C6DAEF8C1F
:10052000DF746DDB020B02E1B5DB0DE0040134BFCB
:1005300002D032DB01D034DBEA22EF923B0E0B6EAD
:10054000DADB8DDB02D03B0ED6DB040134510F0B1E
:100550000C6A700F0B6E0F0E0C22030E0BC0DBFF2C
:10056000040E0CC0DBFF030EDBCFE9FF040EDBCF74
:10057000EAFFEF90050EE15C02E2E16AE552E16E0E
:10058000A3D20501BF5121E1010EBF6FC0511DE192
:10059000010EC06F020EA35D07E18CDAEE52EF6A26
:1005A00089DAC80EEF6E1200A3050FE1B66B98DA78
:1005B000EE52080EEF6E94DA48DB92DA840EEF6E9C
:1005C000010EB66F65DA800EEF6E12000501C16B89
:1005D000C26B020EA35D04E192DB87DA25DB10D04B
:1005E000A7510401365D0501A8510401375904E201
:1005F00036C4A7F537C4A8F5ABD85CDA76DA5ADA90
:10060000C80EEF6E1200800E0401305D38E1050166
:10061000C00EA66F04013351030A1AE0010A09E073
:10062000030A2BE10501060EA46F140EA56F120E2E
:100630001ED0F3DAC70EF626140EC4DA020E050138
:10064000E5DAF5CFA7F5030EE1DAF5CFA8F512004C
:10065000030E325D0FE2E1DAC90EF626140EB2DAAD
:10066000A4C5F6FFA5C5F7FF0800F5500501A76F63
:10067000A86B12000501A66B12000501A66B120003
:10068000EADA0401386B396B30511F0B020A11E0B2
:10069000030A0CE0010A1EE10501A68F040138815E
:1006A0000501B20517E10401388314D00501A68FB6
:1006B00011D00501A68F040134BF02D0E1DA01D0C8
:1006C000E4DA64DAE7DA06E0F0D9EF50040B02E08E
:1006D000010E386F0501A6AF07D0380EA46F040EC7
:1006E000A56FA681020EA76F020EE15C02E2E16A2D
:1006F000E552E16EE9D16D980501A6BF0DD0ABAF13
:1007000009D0020EA36FC25101E160DF0501C06B89
:10071000BF6B120039EF06F0040130AF0DD00501B8
:10072000010EA36FC15101E151DF0501C06BBF6B29
:10073000BE510DE1C1EF02F00501020EA36FA8D971
:10074000840EEF6EC06BBF6BBE5101E11ADF120069
:10075000B0DA080EDF6E0501A75D000EA8590AE2A7
:10076000A7C5DFFFA25102E1010E03D0A20502E1FD
:10077000020EA26FDF500C6AE850A75DA76F0C5005
:10078000A859A86F97D9EE52DFCFEFFF380EB06FA0
:10079000040EB16FA6B10DD0DF5017E0A4C5F6FF6F
:1007A000A5C5F7FFA42B000EA5230800F550DBD943
:1007B000F3D7DF500AE0A4C5E9FFA5C5EAFFA42BE3
:1007C000000EA523EF50CFD9F4D7E5527DD143DAFF
:1007D00087D9EE52EFCFDFFFDFCF0BF00B500501D3
:1007E000AC5D000EAD5902E2ACC5DFFFDF500B6E11
:1007F0000C6AE850AC5DAC6F0C50AD59AD6F010E9A
:10080000DB6ADF50F36E010EDBCFF4FFF350F45CD4
:1008100016E2010EDB50EA6A380FE96E040EEA2296
:10082000EF50E66EA9C5E9FFAAC5EAFFA92B000EA5
:10083000AA23E552E750EF6E010EDB2AE2D7000E45
:10084000D880AC55000EAD550DE259DA4ED948D9D5
:10085000EF50400B03E1E8D9C80E02D0E5D9880E6D
:10086000EF6E12D015D9840EEF6EAE51AF1107E0C6
:1008700005D0AFC5FAFF0501AE51F96EFADF0501EB
:10088000AB9FBE5101E17DDE020EE15C02E2E16A56
:10089000E552E16E19D10DDA0501A68F55D9DF6A4F
:1008A00089D902E237D9FCD76D8CDF6A030EDF5C91
:1008B00002E240D9FBD7010EE66EE66AE66A910EC7
:1008C000E66E050EEED96D9C0501080E9C6F040EB8
:1008D0009D6F000E926F040E936F92C594F5956F05
:1008E00032C490F5905102E1100E0BD0010EE66E6D
:1008F000E66A900EE66E050EE66E010ED2D8050190
:10090000200E8F6FE552E0D0A6D9000EDE6E040EE9
:10091000DD6EF1D8040DF4CF0CF0D9CFE9FFDACFBA
:10092000EAFFF350EE260C50ED22BFD8EF9EFD0EED
:10093000DB5002E1EAD801D0AFD8EA22DECFEEFFE9
:10094000DDCFEDFFB2D8EF9CB0D8040EE926000E43
:10095000EA22EF8C020EE15C02E2E16AE552E16E0E
:10096000B3D079D9FD0EDBA402D0E66A33D9FD0EEF
:10097000DBA203D0010EE66E2DD9FE0EDB500C6A11
:10098000700F0B6E0F0E10D990D8FD0EDBCFEFFF5E
:10099000020EE15C02E2E16AE552E16E95D05BD9BC
:1009A000FE0EDB5002E165D905D0A5D842D9A3D807
:1009B000010F3FD9020EE15C02E2E16AE552E16E0D
:1009C00083D049D9FD0EDB5002E066D801D09DD816
:1009D000DDD8D9CFE9FFDACFEAFFEE50ED1003E121
:1009E000F36AF46A21D061D890D9FB0EDBCFEEFF19
:1009F000FC0EDBCFEDFF59D8EE52FA0EDBCFEFFF46
:100A0000400E79D9880E86D9FD0EDB5002E044D81D
:100A100001D07BD8EA22EF74DECF0BF0DDCF0CF0F3
:100A20000BC0F3FF0CC0F4FF020EE15C02E2E16ACE
:100A3000E552E16E49D043D86DA812D02FD9400EAF
:100A4000EE16EE6AEE6AEE6A29D9EE7C25D8EA2225
:100A5000EF74400E0B6E22D90B50EF161FD9EF7CAE
:100A600033D06D6A696A05018F6B120005018F51E1
:100A70000EE16D6A696AB5D8D08EA28AA08AF28E1C
:100A80006DB602D06D86FCD70501010E8F6F120086
:100A900036D9DBD814EF06F0FE0EEA6ADB345CEFE1
:100AA00006F0E66EE66A6AEF06F0DECFE9FFDDCF1C
:100AB000EAFF12009CC5E9FF9DC5EAFF1200D9CFED
:100AC000E6FFE1CFD9FF1200E552E7CFD9FF1200D0
:100AD00034510F0BE96EEA6AD890E936EA36120013
:100AE00092C5E9FF93C5EAFF12000FD9380EEE6EEA
:100AF000040EED6E1200FD0EDB50E8240D6EFE0EAE
:100B0000DB50040DF3500D241200FE0EEA6ADB34B4
:100B100063EF06F0DF50040DF3CFE9FFF4CFEAFFF7
:100B2000000EE926040EEA22EE6AEE6AEE6AEE6A2A
:100B3000DF2A1200DF50DAD8EA22EF6ADF50D1D87C
:100B4000EA22EF6ADF2A1200020EE66EE66AE66A21
:100B5000710EE66E0F0E51EF06F0EA22EE50EFCF67
:100B6000EAFFE96E1200E66EB0C5E9FFB1C5EAFF23
:100B7000B02B000EB123E552E750EF6EDF061200F6
:100B8000000EE66EE66AE66EE66A1200EA22EECF34
:100B9000DEFFEDCFDDFF120034510F0B71EF06F0D9
:100BA00034510F0B76EF06F00C220BC0DEFF0CC0A9
:100BB000DDFF1200DF500B6E0C6A0C0E0B5C000E9A
:100BC0000C581200F7220900F5CFA4F50A00F5CF62
:100BD000A5F51200FE0EDBCFE6FF96DEE552E552EC
:100BE0001200160E6F6E9F0E6B6E7B0E696E1200FA
:100BF000010EE66EE66A000EE66EE66A1200D95055
:100C0000020FE96EDACFEAFFEF501200F76AA4256F
:100C1000F66EA551F722080012003251F66EF76AFF
:100C2000D890F636F736120094C5E9FF95C5EAFF6D
:100C30001200040DF3CF0BF0F4CF0CF0000E0B26D6
:100C4000040EB2DF840E8AEF06F05FD8300EEE6E2F
:100C5000040EED6E120033DF020EE1261200020ECA
:100C6000E66EE66ADECFE6FFDDCFE6FF050E51EF6A
:100C700005F00EDF8C0EEF6E1DDF840EEF6E12009E
:100C800027DF960EE926050E120022DF9C0EE926CC
:100C9000050E12000ADFEF50800B1200FDDEADEFF3
:100CA00005F0E66ED2EC07F00B6E050EE15E0B5020
:100CB000120005DFE6521200FE0BEA36E96E9C0ECA
:100CC000E926050E1200FE0BEA36E96E960EE926BD
:100CD000050E120088EC07F00B6E060EE15E0B505D
:100CE0001200EA6ABA0FE96E050E1200EA6AB70F3F
:100CF000E96E050E1200D9DEE850EF16120094DFFF
:100D0000EE52080EEF6E14EF06F0020EE926000E0A
:0C0D1000EA221200CADEE850EF121200C6
:040D1C00DACFE4FF47
:100D2000E2CFDAFFE9CFE4FFEACFE4FFF6CFE4FF5A
:100D3000F7CFE4FFF5CFE4FFF3CFE4FFF4CFE4FF18
:100D4000FACFE4FF00EE00F00B0EE80403E3EECF71
:100D5000E4FFFBD700EE0BF0030EE80403E3EECF55
:100D6000E4FFFBD7E65266EC00F0E55200EE0DF032
:100D7000030EE80403E3E5CFEDFFFBD700EE0AF036
:100D80000B0EE80403E3E5CFEDFFFBD7E5CFFAFF59
:100D9000E5CFF4FFE5CFF3FFE5CFF5FFE5CFF7FFB4
:100DA000E5CFF6FFE5CFEAFFE5CFE9FFE5CFDAFFD4
:100DB0001100D8CFE4FFE0CFE4FFE46EDACFE4FF28
:100DC000E652E552E5CFDAFFE550E5CFE0FFE5CFAB
:100DD000D8FF100009D805018F5102E136EC05F06B
:100DE00013D868EC0AF0F7D70F0EC11202D816EF2D
:100DF00000F00001E26BE16B010EE06FF00E8C166B
:100E000095169388938A120012000001FE51FF117B
:100E100004E1100EFE6F270EFF6FFE07000EFF5B52
:100E20006DA207D0FE51FF112EE18C708CB013D053
:100E300027D005018F5102E18C9022D08F0502E16D
:100E40008C8009D0020E8F5D02E18C8019D0040ED7
:100E50008F5D03E18C908C821200100E8F5D06E195
:100E60000001FE51FF110FE18C700AD0200E8F5D42
:100E70000AE10001FE51FF1106E18C708CA002D046
:100E80008C9212008C821200120012008150100B02
:100E900001E0010E0001E15D0DE1E25102E0E20737
:100EA00012008150100B100A01E0010EE16F640E78
:100EB000E26F1200E25101E0E207120012000FEFB0
:100EC00008F012005DEF08F00501B20520E1050110
:100ED000B3051DE1A09AD9DF6D920501B36B000146
:100EE000100EE36F0E0EE46FE307000EE45BE351B8
:100EF000E411FAE16D84080EE36F070EE46FE30777
:100F0000000EE45BE351E411FAE16D94A08A120053
:100F1000D9CFE6FFE1CFD9FFFD0EDBCF06F0FE0E05
:100F2000DBCF07F0050E061801E1075036E0E86850
:100F3000061802E17F0E07182FE0030E061801E1E4
:100F4000075028E0020E061801E1075021E0010ECB
:100F5000061801E107501AE0740E061801E1075067
:100F600013E0750E061801E107500CE0730E061829
:100F700001E1075005E0720E06180FE107500DD091
:100F800085DF0BD081DF09D080DF07D09BDF05D064
:100F900098DF03D094DF01D091DF010EE552E7CF57
:040FA000D9FF120063
:0C0FA400FE0EE3CFE9FFFF0EE3CFEAFFF3
:100FB000E9CFF3FFEACFF4FFFB0EE35003E1FC0EB1
:100FC000E35009E0FB0EE30602E2FC0EE306FD0E31
:080FD000E350EE6EF1D71200B0
:080FD800000EF36E00EE00F0C4
:100FE000080E01D81200EA6002D0EE6AFCD7F35076
:080FF000E9601200EE6AFCD773
:061000001BEF0BF01200D3
:021006001200D6
:061008008EEF06F012005D
:06101800D9EF06F0120002
:02101E000401CB
:1010200030511F0B010801E012003051600BE84203
:10103000E842E842E842E842010801E01200345187
:1010400003E0340501E012003151220A31E0030AC5
:1010500024E0010A15E0210A0DE0010A01E0120076
:101060000501F60EA46F000EA56F080EA76FA86B02
:10107000A68121D00501F60EA46F000EA56F1BD02E
:1010800036C4ACF537C4ADF50501880EA96F050E61
:10109000AA6FAE6BAF6BAB8F12000501880EA46F09
:1010A000050EA56F070EA76FA86BC10EA66F1200E5
:1010B00032C4F1F00501A68F12000501886B4B0EBA
:1010C000896F8A6B8B6B8C6B8D6B080E8E6F00013A
:1010D000E56B1A0EE66E010EE66EB1EC04F0E55219
:1010E000E5521E0EE66E020EE66EB1EC04F0E5521D
:1010F000E55224D90001EF6BF06BE66B120049D981
:101100007BD9050E061801E1075002E0000E14D04D
:1011100050D90001ED510B1804E1EE510C1801E11A
:101120000DD947D90001EF510B1805E1F0510C180A
:1011300002E1E66BEB6B010E31D12BD90001E56BBF
:10114000ED51EE1102E1000E05D041D9EF50800BB8
:1011500001E0010E00092DE1FC0EDBCF0BF037D9C9
:10116000EE52EF50D8800B5405E231D9EE52FC0E0E
:10117000EFCFDBFFE56BFC0EDB50E55D19E2E551DF
:10118000EA6A080FE96E050EEA22EF50E66EE551B5
:10119000E76EFD0EDBCFE9FFFE0EDBCFEAFFE75087
:1011A000E926000EEA22E552E750EF6EE52BE3D781
:1011B000C5D80001E551F2D0ECD8A09A0001E65163
:1011C00007E1F0D8FC0EDBCFEBF0010EEC6FE66F21
:1011D000A08AE4D00AD917E1C6D8F2D802E10C50AF
:1011E0000BE0010EDBCFE9FFDB2A020EDBCFEAFFCB
:1011F00001E3DB2AEF50F1E1D5D8DFCFEBF00001BE
:10120000010EEC6FE66FA08A030EE15C02E2E16A78
:10121000E552E16EC3D0E9D818E1A5D8D1D802E1F2
:101220000C500CE0010EDBCFF6FFDB2A020EDBCF09
:10123000F7FF01E3DB2A0800F550F0E1B3D8DFCF78
:10124000EBF00001EC6B010EE66FA08A030EE15C8F
:1012500002E2E16AE552E16EA1D09BD8020EE126DE
:10126000A09A0001EF51F01102E1000E08D0EFC08A
:10127000E9FFF0C0EAFFEF50800B01E0010E00092A
:1012800006E1030EE65D01E1E66BE65102E1A08AAC
:101290004ED0020EE65D09E1E66A000EE66EE66AF1
:1012A0005AD80001030EE66F41D0E6053FE1400E3B
:1012B0000B6E0C6AEB510B5C000E0C5803E2400EF7
:1012C000DF6E02D0EBC0DFFFDF50EB5DEB6F480E4F
:1012D000E96F050EEA6F010EDFCFDBFFEC510BE18A
:1012E000010EDB5012E0E7C0F6FFE8C0F7FF080090
:1012F000F55042D8F5D7010EDB5007E0E7C0E9FF13
:10130000E8C0EAFFEF5038D8F6D70001EB5107E10B
:10131000400EDF5C02E1020E01D0030EE66FDFCF6C
:10132000E6FF480EE66E050EE66E15D8A08A020EA0
:10133000E15C02E2E16AE552E16E30D0400EE66E19
:10134000080EE66E050EE66EE66A46D8F3CFEDF0BF
:10135000F4CFEEF01200010EE66E3ED8F3CFEFF0C0
:10136000F4CFF0F01200DF6A47D8DE5206C0DEFF8D
:1013700007C0DDFFDD521200E9C0E9FFEAC0EAFF65
:10138000EF6EE92B000EEA23E72BE823010EDB06C4
:101390001200D9CFE6FFE1CFD9FF1200E552E7CF27
:1013A000D9FF1200FD0EDBCFE7F0FE0EDBCFE8F039
:1013B0001200FB0EDBCF0BF0FC0EDBCF0CF01200AB
:1013C000DF2ADF500B6E0C6AFF0E0B181200EDC007
:1013D000E9FFEEC0EAFF1200020EE66EE1EC04F057
:1013E0000B6E050EE15E0B501200D3DF030EE126FB
:1013F000A09A0001E6511200FD0EDBCF06F0FE0EB2
:06140000DBCF07F0120033
:0A1406001201000202000008D804E1
:101410000A0000010102000109024300020100C0AC
:101420003209040000010202010005240010010439
:10143000240202052406000105240100010705819C
:101440000308000209040100020A00000007050267
:101450000240000007058202400000040309043432
:10146000034D006900630072006F0063006800694B
:10147000007000200054006500630068006E006F7B
:10148000006C006F0067007900200049006E006367
:10149000002E003403430044004300200052005358
:1014A000002D00320033003200200045006D007531
:1014B000006C006100740069006F006E0020004441
:0F14C0000065006D006F0018145B145F14931427
:1014D000D9CFE6FFE1CFD9FF020EE12605EC07F0F8
:1014E000200E0501E76E8F19E8AE02D0E73402D076
:1014F000E7508F5D3EE36D50020B3BE10001E6518A
:1015000036E1400EE66EA00EE66E000EE66E9DEC35
:1015100008F0E552E552E552DF6EDF5028E0010E9B
:10152000DB6ADF50F36E010EDBCFF4FFF350F45CA7
:1015300013E229D80A0A01E0070A25D8E66E010E4F
:10154000DB50EA6A600FE96E000EEA22E552E750CE
:10155000EF6E010EDB2AE5D7DFCFE6FF600EE66E09
:10156000000EE66EDCEC08F0E552E552E5522DEC9B
:1015700009F0020EE15C02E2E16AE552E16EE55239
:10158000E7CFD9FF1200010EDB50EA6AA00FE96E27
:08159000000EEA22EF501200E8
:081598001E0EF66E000EF76E48
:1015A000000EF86E05010900F550C86F0900F550EE
:1015B000C96F03E1C86701D03DD00900F550C36F82
:1015C0000900F550C46F0900F550C56F0900090006
:1015D000F550E96E0900F550EA6E090009000900AE
:1015E000F550C66F0900F550C76F09000900F6CF26
:1015F000CAF5F7CFCBF5F8CFCCF5C3C5F6FFC4C518
:10160000F7FFC5C5F8FF0501C65302E1C75307E060
:101610000900F550EE6EC607F8E2C707F9D7CAC54C
:10162000F6FFCBC5F7FFCCC5F8FF0501C807000ED4
:06163000C95BBFD71200E8
:0A16360013EE00F023EE00F0F86A56
:101640000A9CCCEC0AF003EC08F0EAEC06F0FBD7BD
:02165000120086
:020000040030CA
:0100000024DB
:010001000EF0
:010002003EBF
:010003001EDE
:010005008377
:010006008178
:010008000FE8
:00000001FF
