:1000000057EF03F00000000000EF00F000000000D8
:0A0010000000000000000000F3D71C
:10001C000B1E0A1E091E081E082AD8B4092AD8B4B9
:08002C000A2AD8B40B2A1200C5
:100034000450085E0550D8A0053C095E0650D8A0BF
:10004400063C0A5E0750D8A0073C0B5E0336070E39
:100054000C6E0334083609360A360B36045003A0F6
:100064000ED0085E0550D8A0053C095E0650D8A005
:10007400063C0A5E0750D8A0073C0B5E0DD008264C
:100084000550D8B0053C09260650D8B0063C0A26CF
:100094000750D8B0073C0B2603360C2EDAD70234AF
:1000A400083609360A360B36045003A00ED0085E13
:1000B4000550D8A0053C095E0650D8A0063C0A5E4F
:1000C4000750D8A0073C0B5E0DD008260550D8B0C9
:1000D400053C09260650D8B0063C0A260750D8B07D
:1000E400073C0B260236070E0C6E0234083609361E
:1000F4000A360B36045002A00ED0085E0550D8A074
:10010400053C095E0650D8A0063C0A5E0750D8A0FC
:10011400073C0B5E0DD008260550D8B0053C0926D7
:100124000650D8B0063C0A260750D8B0073C0B2628
:1001340002360C2EDAD70134083609360A360B3665
:10014400045002A00ED0085E0550D8A0053C095EFC
:100154000650D8A0063C0A5E0750D8A0073C0B5EA8
:100164000DD008260550D8B0053C09260650D8B055
:10017400063C0A260750D8B0073C0B260136070E6A
:100184000C6E0134083609360A360B36045001A0C9
:100194000ED0085E0550D8A0053C095E0650D8A0D4
:1001A400063C0A5E0750D8A0073C0B5E0DD008261B
:1001B4000550D8B0053C09260650D8B0063C0A269E
:1001C4000750D8B0073C0B2601360C2EDAD7003482
:1001D400083609360A360B36045001A00ED0085EE4
:1001E4000550D8A0053C095E0650D8A0063C0A5E1E
:1001F4000750D8A0073C0B5E0DD008260550D8B098
:10020400053C09260650D8B0063C0A260750D8B04B
:10021400073C0B260036070E0C6E003408360936F0
:100224000A360B36045000A00ED0085E0550D8A044
:10023400053C095E0650D8A0063C0A5E0750D8A0CB
:10024400073C0B5E0DD008260550D8B0053C0926A6
:100254000650D8B0063C0A260750D8B0073C0B26F7
:1002640000360C2EDAD700B00ED004500826055004
:10027400D8B0053C09260650D8B0063C0A260750DB
:08028400D8B0073C0B26120064
:10028C00800E006EBB0E016E000E026E036E12002D
:10029C004806480648C001F048060150000803E231
:1002AC0000000000F7D70000000000000000000074
:0202BC0012002E
:1002BE000450000A12E10550000A0FE10650000A30
:1002CE000CE10750000A09E1FF0E006EFF0E016EF1
:1002DE00FF0E026E7F0E036E97D00C6A07BE0C2ABD
:1002EE000D6A0B6A0A6A096A086A03500210011045
:1002FE000010D8B484D0035007180E6E0EBE0D1E1B
:10030E0007AE0BD0041E051E061E071E042AD8B407
:10031E00052AD8B4062AD8B4072A03AE0BD0001E7D
:10032E00011E021E031E002AD8B4012AD8B4022AC6
:10033E00D8B4032A035007100E6E0EBE1CD073DE07
:10034E000CBE36D00DAE5BD0001E011E021E031E6B
:10035E00002AD8B4012AD8B4022AD8B4032A081E17
:10036E00091E0A1E0B1E082AD8B4092AD8B40A2A56
:10037E00D8B40B2A44D007AE15D003BE0DD003500F
:10038E000B6E02500A6E0150096E0050086E036A21
:10039E00026A016A006AD6D7036A026A016A006AB3
:1003AE00002A000C031E021E011E001E0C8EC7D753
:1003BE00082AD8B4092AD8B40A2AD8B40B2A045069
:1003CE00085CD8A4BFD70550095CD8A4BBD706508B
:1003DE000A5CD8A4B7D707500B5CD8A4B3D70B6A66
:1003EE000A6A096A086A002AD8B4012AD8B4022A0D
:1003FE00D8B4032A03AEA6D70E6A0E88FF0C0E6A77
:0A040E000CA001D004DE000F120064
:10041800220E0C6E086A096A0A6A0B6A0C06D8B4BE
:100428001FD0D8900B320A32093208320332023216
:1004380001320032D8A0F2D70C06D8B409D0045043
:1004480008260550092206500A2207500B22EAD72F
:10045800045008260550092206500A2207500B228C
:02046800120080
:10046A000900F5CFE6FF0006FBE10106F9E11200FB
:10047A0031C018F032C019F033C000F0010E026E1C
:10048A00005004E002360290FF0FFBD702C01BF0B7
:10049A00021C1C6E34C001F0010E006E015004E013
:1004AA0000360090FF0FFBD700C015F0001E00C0F9
:1004BA0016F0120E3124E96E000E3220EA6E025056
:1004CA00EF120050EF16176A3952D8A4171E120EEF
:1004DA00E95E1750000A03E01650EF1602D01550D5
:1004EA00EF12CFDEE80E046E030E056E000E066EE6
:1004FA00076E8DDF00C044F001C045F002C046F02F
:10050A0003C047F044C03AF045C03BF046C03CF057
:10051A0047C03DF035C000F036C001F037C002F0E8
:10052A0038C003F000360090013602360336003632
:10053A0000900136023603360A0E046E000E056E6E
:10054A00066E076E64DF00C03EF001C03FF002C0D5
:10055A0040F003C041F000C004F001C005F002C041
:10056A0006F003C007F044C000F045C001F046C0E1
:10057A0002F047C003F09EDE00C042F001C043F023
:10058A0001C004F0056A0450051003E0020E006E73
:10059A0050D042C01AF03EC004F03FC005F040C03F
:1005AA0006F041C007F03AC000F03BC001F03CC081
:1005BA0002F03DC003F07EDE08C000F009C001F081
:1005CA000AC002F00BC003F000C03AF001C03BF0D1
:1005DA0002C03CF003C03DF03EC005F03FC006F04B
:1005EA0040C007F041C008F008320732063205322F
:1005FA00089E08BC088E800E0818046E800E031828
:10060A00045C08E10250075C05E10150065C02E166
:10061A000050055CD8A01A2A1AC001F00132019EC6
:10062A0001C01DF0070E015C03E2010E006E01D04D
:04063A00006A120040
:10063E00010E326E1750311A18C0E9FF19C0EAFFC9
:10064E001750000A03E01550EF1202D01650EF16A5
:10065E001AC048F01CDE311E325216E032503114F0
:10066E00006E03E11550EF1202D01650EF1632361F
:10067E003290020E1A5C486E0ADE00000000000086
:10068E00000000000000E8D71750000A03E01650E3
:10069E00EF1602D01550EF121AC048F0F8DD120016
:1006AE002E0EF66E070EF76E000EF86E1E0EE16E33
:1006BE00000EE26E120E006E010E016ECFDE830E84
:1006CE00316E0F0E326E336A010E346E800E356E41
:1006DE00250E366E000E376E386E396AC7DE306AFA
:1006EE00120E305C0DE21E0EE96E000EEA6E3050F8
:1006FE00E926D8B0EA2AEECF31F09ADF302AF0D7C9
:10070E003D0E0B6EE10E0C6E3F0E0D6E0D2EFED7D6
:10071E000C2EFCD70B2EFAD700000000E0D7FFD727
:10072E006D696B726F43205541525420544553549A
:02073E000A00AF
:020000040030CA
:0E000000244E3E1EFF8381FF0FC00FE00F4015
:00000001FF
