:04000000FAEF38F0EB
:106E9E008B84949412008B94949412000E0EACEC8E
:106EAE0037F00E0B12000E0EACEC37F0056E0550DF
:046EBE00E00B1200D3
:106EC30043414E20444154413A200000000200E86F
:106ED300CF01F001C0ADFFAC8AACB21200FDD7C93F
:106EE300CF01F09E96000EC96E9EA6FED7C9501222
:106EF300000043414E2049443A2000D800DC00E022
:106F030000E100C800D00052EC37F0C00E9CEC3713
:106F1300F00009D8A4FAD74FEC37F01200E8CF07F6
:106F2300F0066EE00E036E065007C004F00F0EF677
:106F3300EC37F01200E8CF02F0C9CF01F09E96C6FD
:106F43009E02C0C9FFC6AE02D0FF0E03D09EA6FEAE
:106F5300D7000E1200E8CF03F052EC37F0030E9C7B
:106F6300EC37F00009D8A4FAD703509CEC37F000B3
:106F730009D8A4FAD771EC37F0046E4FEC37F0045C
:106F8300501200E8CF04F052EC37F0020E9CEC37BD
:106F9300F00009D8A4FAD704509CEC37F00009D8C4
:106FA300A4FAD703509CEC37F00009D8A4FAD74FC2
:106FB300EC37F012002D0EACEC37F0056E05A40291
:106FC300D0050E11D005A602D0040E0DD005A802DF
:106FD300D0030E09D005AA02D0020E05D005AC02DB
:106FE300D0010E01D0000E1200E8CF05F052EC37AD
:106FF300F0050E9CEC37F00009D8A4FAD705509C95
:10700300EC37F00009D8A4FAD703509CEC37F00012
:1070130009D8A4FAD704509CEC37F00009D8A4FA95
:10702300D74FEC37F01200E8CF0AF00A6603D00717
:107033006E210E02D0076E250E0A6E07500538E842
:1070430046E00B096E09C003F00A50C3EC37F00A9F
:107053000605C007F006C008F0D89008320732D8FA
:107063009008320732D890083207320750096E0968
:10707300C003F00A50C3EC37F01200E8CF03F03F2F
:107083000EC716000EC66E0350C6120250C7120575
:10709300D0C78C13D0C78CC68810D00150000AD833
:1070A300B4F7D7020AD8B4F6D7010AD8B4F4D7058F
:1070B300D0928A93820AD0939208D00350040AD8BC
:1070C300B4F7D7010AD8B4F5D7F6D79380949EC600
:1070D3008A120005C04FF04F50FF0A4E6E4EC00398
:1070E300F02A0EC3EC37F006C04FF04F50FF0A09E9
:1070F3006E3F0E09164F50C00B09104E6E4EC00363
:10710300F0290EC3EC37F007C04FF0470E4F164F70
:1071130050FF0A096E060E09164F50410B09104E17
:107123006E4EC003F0280EC3EC37F01200000E942D
:107133006EDBEC39F082AC06D055EC37F03A6E3AA0
:10714300503BEC39F05704D8A4F5D75650A4EC3D86
:10715300F0396E000E576E3950396E000E00010083
:1071630001E16F3950396E000E00010001E06F3903
:1071730050396E000E00010001C76F3950396E009F
:107183000E566E3950D7D7E8CF0BF0030E0B5CD8F1
:10719300B004D00B50040DF3280BD0050E0B640480
:1071A300D0076E050E0B6E07500B50040DF3500500
:1071B3000F0A6E0538E846E00B096E09C003F00AB2
:1071C30050C3EC37F00A0605C007F006C008F0D834
:1071D3009008320732D89008320732D89008320725
:1071E300320750096E09C003F00A50C3EC37F0129E
:1071F3000000EEC7F01B0EEE6AE806FDE100EE4A62
:10720300F00E0EEE6AE806FDE10F0EF66E730EF752
:107213006E000EF86E01EE00F010EEA7F00900F517
:10722300CFEEFFE550E150FAE1F50EF66E6E0EF784
:107233006E000EF86E00EEE2F010EE15F00900F5A8
:10724300CFEEFFE550E150FAE1C30EF66E6E0EF796
:107253006E000EF86E00EE3BF010EE0FF00900F535
:10726300CFEEFFE550E150FAE1000EF86E00019811
:10727300EF38F0E8CF38F03ED07CEC3BF045D03728
:107283006E010E566E37500001EEC007F00001ED9F
:10729300C006F00001F2C009F00001F1C008F000DF
:1072A30001F6C00BF00001F5C00AF0010E37EC3C0B
:1072B300F019D0376E000E566E37500001ECC00740
:1072C300F00001EBC006F00001F0C009F00001EF8F
:1072D300C008F00001F4C00BF00001F3C00AF00095
:1072E3000E37EC3CF000010001C76F376E010E57FB
:1072F3006E37500AD03850020AD8B4BED70E0AD817
:10730300B4D8D7020AD8B4BBD7120000526573654C
:107313007474696E672043414E2049432064756548
:1073230020746F20657863657373206572726F7262
:10733300730A004572726F7220636F756E74206EEC
:10734300656172696E67203132380A004572726F67
:107353007220636F756E742062656C6F77203936A7
:107363000A005354414E44415244204D4553534126
:1073730047452F6E00455854454E444544204D45DE
:1073830053534147452F6E004E4F2E204F46204208
:10739300595445533A20004255464645523A2052E5
:1073A3005842300A004255464645523A2052584206
:1073B300310A00000E00010001D86F000E0001D950
:1073C3006F000E0001DA6F000E0001DB6F000E008C
:1073D300010001DC6F000E0001DD6F000E0001DE15
:1073E3006F000E0001DF6F7F0E2C6E8F0E2D6E78F7
:1073F3000E2E6EFC0E2F6ECE0E306EBB0E316E1C3B
:107403006E5C0E326E1C501C6E000E336E1C501CD4
:107413006E000E346E1C501C6E000E356E1C502C0C
:10742300500A6E2D500B6E2E500C6E0D6A2F500E9F
:107433006E30500F6E3150106E116A32C012F0333D
:10744300C013F034C014F035C015F0E3EC3AF01D6E
:107453006E52EC37F04AC020F04BC021F04CC022F2
:10746300F04DC023F028C00CF029C00DF0000E0F22
:107473006E200E0E6E000E5DEC3AF01E6E46C024BA
:10748300F047C025F048C026F049C027F02AC00CB9
:10749300F02BC00DF0000E0F6E240E0E6E010E5D6C
:1074A300EC3AF01F6E000E90EC37F05AEC37F00018
:1074B30009D8B41200FAD7E8CF11F05AEC37F0E04C
:1074C3000B556E800E90EC37F0106E000E126E109E
:1074D30050106E000E136E10500BD0122A12660855
:1074E300D0800E90EC37F0132A1350050AD8B45FFE
:1074F300D05AEC37F0106EE00E10161050800AD8F8
:10750300A4ECD7116620D00CC005F00DC006F00026
:107513000E15EC38F00EC0D9FF0FC0DAFFDECF0531
:10752300F0DDCF06F0000EC5EC38F020EE02F00ED1
:1075330050D9260F50DA22DECF05F0DDCF06F00159
:107543000EC5EC38F020D00CC005F00DC006F001DC
:107553000E15EC38F0106E000E546E105011D0540E
:1075630050020DF3500E24D96EF4500F20DA6EDE64
:10757300CF05F0DDCF06F05450020FC5EC38F054C0
:107583002A030E5464ECD755C003F00F0EC3EC3737
:10759300F0555090EC37F00DD0122A12660AD055F0
:1075A3005090EC37F0132A1350050AD8A402D0FFE9
:1075B3000E07D05AEC37F0E00B5518D8A4EDD700DE
:1075C3000E120014C001F015C002F013503FEC3846
:1075D300F0800E0A14166E000E0B14176E000E0CBC
:1075E30014186EFF0E0D14196E195016101710187B
:1075F30010D8B485EC37F0800E90EC37F0166E009F
:107603000E1A6E1650166E000E1B6E16500DD01A03
:107613002A1A660AD0800E90EC37F01B2A1B5005FD
:107623000AD8A402D0FF0E65D05AEC37F0800AD8EE
:10763300A4EED70C50070B536E538E53C003F00FB9
:107643000EC3EC37F00EC005F00FC006F010C007F4
:10765300F011C008F06BEC38F00AC016F00BC0173D
:10766300F00CC018F00DC019F00D0E05D0D890190C
:1076730032183217321632E82EF9D71650070B5349
:107683006E53C003F00D0EC3EC37F00B500F0B53CA
:107693006E0A500A24300B531253C003F00C0EC36E
:1076A300EC37F00A50600BFF0A166E0A50040B16F3
:1076B30010536E53C003F0600EC3EC37F00A38E882
:1076C30046E00BFF0A600B536E53C003F0700EC30A
:1076D300EC37F01250FF0A536E166E000E036E164F
:1076E300502C0EC3EC37F053C003F02B0EC3EC3712
:1076F300F0000E1200DCEC37F000010001B66F2140
:10770300EE27F010EE60F0190EDECFE6FFE82EFC58
:10771300D721EE00F010EE79F0270EDECFE6FFE87A
:107723002EFCD721EE40F010EEA0F0160EDECFE6D1
:10773300FFE82EFCD784D0366E000E00010001B79F
:107743006F365012D000010001B751010D000179CD
:107753000EF324D96E0001000EF420DA6EDF5069B7
:10776300EC37F000010001B72B250E00010001B733
:1077730065E9D785EC37F0DBEC39F076D0366E006F
:107783000E00010001B76F365012D000010001B79F
:1077930051010D0001790EF324D96E0001000EF49E
:1077A30020DA6EDF5069EC37F000010001B72B25BA
:1077B3000E00010001B765E9D785EC37F0DBEC3942
:1077C300F053D0366E000E00010001B76F36501231
:1077D300D000010001B751010D0001600EF324D95F
:1077E3006E0001000EF420DA6EDF5069EC37F00012
:1077F300010001B72B170E00010001B765E9D7346B
:10780300D0366E000E00010001B76F365012D00063
:10781300010001B751010D0001A00EF324D96E0040
:1078230001000EF420DA6EDF5069EC37F00001003E
:1078330001B72B140E00010001B765E9D715D0007D
:10784300010001B651000AD8B4DBD7010AD8B4B994
:10785300D7030AD8B4B6D7010AD8B490D7070AD841
:10786300B46AD7010AD8B467D71200E8CF12F0017F
:107873000E12161250060F516E513AF00E51165158
:1078830050050FACEC37F0506E50500F0B526E0892
:107893000E526404D00C6E080E526E0C5008C0D900
:1078A300FF09C0DAFF52C0DFFF5150020FACEC37C3
:1078B300F0136E13A6B8D05128ACEC37F0526E52C9
:1078C300C00CF00D6A0E6A0F6A06C0D9FF07C0DA52
:1078D300FF0CC0DEFF0DC0DEFF0EC0DEFF0FC0DDFC
:1078E300FFD906D90606C0D9FF07C0DAFF030ED8B1
:1078F30090DE36DE36DE36DD36D906D906E82EF7DB
:10790300D713C00CF0050E0D6ED8900C320D2EFC63
:10791300D7070E0C160C5006C0D9FF07C0DAFFDEDE
:1079230012000EDE12DE12DD12DD52DD5206C0D968
:10793300FF07C0DAFF020ED890DE36DE36DE36DD14
:1079430036D906D906E82EF7D713C00CF0030E0C70
:10795300160C5006C0D9FF07C0DAFFDE12000EDE98
:1079630012DE12DD12DD52DD5206C0D9FF07C0DA86
:10797300FF080ED890DE36DE36DE36DD36D906D980
:1079830006E82EF7D75150030FACEC37F0526E5286
:107993005006C0D9FF07C0DAFFDE12000EDE12DE8A
:1079A30012DD12DD52DD5206C0D9FF07C0DAFF082F
:1079B3000ED890DE36DE36DE36DD36D906D906E859
:1079C3002EF7D75150040FACEC37F0526E525006DD
:1079D300C0D9FF07C0DAFFDE12000EDE12DE12DDB1
:1079E30012DD52DD5250AC1CD01250D8B40CD00C66
:1079F3006E020E036E0C500D6E000E046E0D502CB5
:107A03000EF6EC37F00BD00C6E010E036E0C500D1E
:107A13006E000E046E0D502C0EF6EC37F0010E9135
:107A2300D00C6E030E59D05128ACEC37F00C6E0C11
:107A3300C00DF00E6A0F6A106A06C0D9FF07C0DADC
:107A4300FF0DC0DEFF0EC0DEFF0FC0DEFF10C0DD86
:107A5300FFD906D90606C0D9FF07C0DAFF030ED83F
:107A630090DE36DE36DE36DD36D906D906E82EF769
:107A7300D713C00CF0050E0D6ED8900C320D2EFCF2
:107A8300D70C5006C0D9FF07C0DAFFDE12000EDEA6
:107A930012DE12DD12DD52DD5213A81CD01250D8B3
:107AA300B40CD00C6E020E036E0C500D6E000E045F
:107AB3006E0D502C0EF6EC37F00BD00C6E010E034E
:107AC3006E0C500D6E000E046E0D502C0EF6EC373E
:107AD300F0020E37D00C6E040E116E0C50060E51D0
:107AE3002608C0D9FF09C0DAFFDF50526E0BD05110
:107AF30050ACEC37F00AC0D9FF0BC0DAFFDF6E5190
:107B03002A0A4A0B2A52065228D8A4F1D71250D86F
:107B1300B40CD00C6E020E036E0C500D6E000E04EE
:107B23006E0D502C0EF6EC37F00BD00C6E010E03DD
:107B33006E0C500D6E000E046E0D502C0EF6EC37CD
:107B4300F011501200E8CFC5F021EE56F010EE7C94
:107B5300F0130EDECFE6FFE82EFCD721EE69F0101E
:107B6300EE8FF0130EDECFE6FFE82EFCD721EE8B6F
:107B7300F010EE60F00E0EDECFE6FFE82EFCD7210C
:107B8300EE99F010EE6EF00E0EDECFE6FFE82EFC5F
:107B9300D721EE7CF010EEA2F00F0EDECFE6FFE869
:107BA3002EFCD720EEE2F010EEBCF0090EDECFE69D
:107BB300FFE82EFCD720EE3BF010EEB1F00B0EDE0B
:107BC300CFE6FFE82EFCD700010001C56709D1000D
:107BD300010001C751040AD8A41FD0026E000E0091
:107BE300010001C66F025012D000010001C651010D
:107BF3000D00017C0EF324D96E0001000EF420DA8F
:107C03006EDF5069EC37F000010001C62B100E0047
:107C1300010001C665E9D724D000010001C7510363
:107C23000AD8A41ED0026E000E00010001C66F0226
:107C33005012D000010001C651010D00018F0EF357
:107C430024D96E0001000EF420DA6EDF5069EC37A0
:107C5300F000010001C62B100E00010001C665E90A
:107C6300D7026E000E00010001C66F025012D00051
:107C7300010001C651010D0001600EF324D96E000D
:107C830001000EF420DA6EDF5069EC37F0000100DA
:107C930001C62B0C0E00010001C665E9D7026E0078
:107CA3000E00010001C66F025012D000010001C690
:107CB30051010D0001A20EF324D96E0001000EF450
:107CC30020DA6EDF5069EC37F000010001C62B0D9E
:107CD3000E00010001C665E9D700010001E051690A
:107CE300EC37F00A0E69EC37F0026E000E0001006B
:107CF30001C66F025012D000010001C651010D00F0
:107D030001BC0EF324D96E0001000EF420DA6EDFFD
:107D13005069EC37F000010001C62B070E0001008B
:107D230001C665E9D7026E000E00010001C66F02AD
:107D33005012D000010001C651010D0001D80EF30D
:107D430024D96E0001000EF420DA6EDF5069EC379F
:107D5300F000010001C62B020E00010001C665E917
:107D6300D70A0E69EC37F0026E000E00010001C65F
:107D73006F025012D000010001C651010D0001B184
:107D83000EF324D96E0001000EF420DA6EDF506981
:107D9300EC37F000010001C62B090E00010001C6FB
:107DA30065E9D7026E000E00010001C66F02501292
:107DB300D000010001C651010D0001C80EF324D902
:107DC3006E0001000EF420DA6EDF5069EC37F0002C
:107DD300010001C62B070E00010001C665E9D70D9E
:107DE300D100010001C505D8A408D100010001C7D5
:107DF30051040AD8A41FD0026E000E00010001C670
:107E03006F025012D000010001C651010D00017C28
:107E13000EF324D96E0001000EF420DA6EDF5069F0
:107E2300EC37F000010001C62B100E00010001C663
:107E330065E9D724D000010001C751030AD8A41E65
:107E4300D0026E000E00010001C66F025012D00076
:107E5300010001C651010D00018F0EF324D96E00FC
:107E630001000EF420DA6EDF5069EC37F0000100F8
:107E730001C62B100E00010001C665E9D7026E0092
:107E83000E00010001C66F025012D000010001C6AE
:107E930051010D00016E0EF324D96E0001000EF4A2
:107EA30020DA6EDF5069EC37F000010001C62B0CBD
:107EB3000E00010001C665E9D7026E000E00010045
:107EC30001C66F025012D000010001C651010D001E
:107ED30001A20EF324D96E0001000EF420DA6EDF46
:107EE3005069EC37F000010001C62B0D0E000100B4
:107EF30001C665E9D700010001E15169EC37F00AD9
:107F03000E69EC37F0026E000E00010001C66F022D
:107F13005012D000010001C651010D0001BC0EF347
:107F230024D96E0001000EF420DA6EDF5069EC37BD
:107F3300F000010001C62B070E00010001C665E930
:107F4300D7026E000E00010001C66F025012D0006E
:107F5300010001C651010D0001DC0EF324D96E00AE
:107F630001000EF420DA6EDF5069EC37F0000100F7
:107F730001C62B020E00010001C665E9D70A0E698E
:107F8300EC37F0026E000E00010001C66F025012C2
:107F9300D000010001C651010D0001B10EF324D937
:107FA3006E0001000EF420DA6EDF5069EC37F0004A
:107FB300010001C62B090E00010001C665E9D702C5
:107FC3006E000E00010001C66F025012D0000100C6
:107FD30001C651010D0001D00EF324D96E0001003A
:107FE3000EF420DA6EDF5069EC37F000010001C6B1
:0E7FF3002B070E00010001C665E9D71200FF42
:020000040020DA
:08000000FFFFFFFFFFFFFFFF00
:020000040030CA
:0E000000000C1E1EFF8081FF0FC00FE00F409E
:00000001FF
