:0400000006EF00F017
:10000800E8ED01F0D0EF01F01350310A01E0A2D081
:100018001450500A4DE182A039D04AD016A001D020
:10002800838016B001D0839095D016A001D083822A
:1000380016B001D083928ED016A001D0838416B05A
:1000480001D0839487D016A001D0838616B001D042
:10005800839680D016A001D0838816B001D08398EB
:1000680079D016A001D0838A16B001D0839A72D0B5
:1000780016A001D0838C16B001D0839C6BD016A03B
:1000880001D0838E16B001D0839E64D01550010A2A
:10009800C5E0030ACAE0010ACFE0070AD4E0010A72
:1000A800D9E0030ADEE0010AE3E00F0AE8E03ED007
:1000B8001450530A4FE182A23BD04CD016A001D075
:1000C800808016B001D0809045D016A001D08082E3
:1000D80016B001D080923ED016A001D0808416B010
:1000E80001D0809437D016A001D0808616B001D0F8
:1000F800809630D016A001D0808816B001D08098A4
:1001080029D016A001D0808A16B001D0809A22D0BA
:1001180016A001D0848016B001D084901BD016A000
:1001280001D0848216B001D0849214D000F012D08D
:100138001550110AC3E0030AC8E0010ACDE0070A16
:10014800D2E0010AD7E0030ADCE0010AE1E00F0A85
:10015800E6E0ECD782A008D08390839283948396BC
:100168008398839A839C839E82A2120080908092B7
:10017800809480968098809A8490849212008198C6
:10018800610EC6EC01F0D9EC01F0136ED9EC01F068
:10019800146ED9EC01F0156ED9EC01F0166ED9EC9D
:1001A80001F0176ED9EC01F0186ED9EC01F0196E58
:1001B800D9EC01F01A6E10D868EC01F08198E20EC3
:1001C800C6EC01F009D868EC01F07E0E026E070E4D
:1001D800AEEC01F0F09212008188010E016E026A05
:1001E800036A046A000C080E0B6E110EA0EC01F0F5
:1001F8003B0E0B6E000EA0EC01F08198E10EBCECFA
:1002080001F08188010E0A6E000E0B6A0C6A0D6AF5
:1002180084EC01F08198E20EBCEC01F081887E0E3E
:100228000B6E070EA0EC01F0260E0B6E060EA0EF6B
:1002380001F0E8CF0BF09392949E0AD0C69803D0B1
:10024800C69804D0C688C78C12D0C688C79C0FD061
:100258000B50F4E0010AF4E0110AF4E0010AF5E0B9
:1002680006D0C6820AD0C68008D0C65006D00A502A
:10027800FCE0010AF8E0030AF4E0C68A1200E70E7F
:10028800931681888186E1EC01F0020E0A6E000E59
:100298001DEC01F0F7EC00F00F0EC112956A9450B6
:1002A800FC0E9616926A8390839283948396839821
:1002B800839A839C839E8090809280948096809875
:1002C800809A849084921200066A076A086A096A0A
:1002D8000CD0070E056E7D0EE82EFED7052EFCD736
:1002E800062A000E0722082209220150065C025045
:1002F80007580350085804500958D8B01200E9D7D5
:100308000F6A106A116A126A0CD0070E0E6E7D0E03
:10031800E82EFED70E2EFCD70F2A000E102211222F
:1003280012220A500F5C0B5010580C5011580D50E7
:100338001258D8B01200E9D7E8CF0CF081980C50C9
:1003480020090D6E0D50BCEC01F00B50BCEC01F017
:1003580081881200E8CF03F0819803502009046EC9
:100368000450C6EC01F00250C6EC01F0818812007E
:10037800E8CF0AF09E96C69EC9500AC0C9FF9EB62D
:100388001200FDD7E8CF01F09E96C69EC95001C065
:10039800C9FF9EB61200FDD700EE13F0080EEE6AF4
:1003A800E806FDE10001EEEF01F09E96C69EC950F9
:1003B800C96A9EA6FED7C9501200D08EF28EF28C62
:1003C800F198F088F09212000600C3EC00F008ECF7
:0A03D80000F0110043EC01F0FFD724
:020000040020DA
:08000000FFFFFFFFFFFFFFFF00
:020000040030CA
:04000000000C1E1EB4
:020005008081F8
:060008000FC00FE00F40E5
:00000001FF
